{"abi":[{"type":"constructor","inputs":[{"name":"priceFeed","type":"address","internalType":"address"}],"stateMutability":"nonpayable"},{"type":"function","name":"MINIMUM_USD","inputs":[],"outputs":[{"name":"","type":"uint256","internalType":"uint256"}],"stateMutability":"view"},{"type":"function","name":"cheaperWithdraw","inputs":[],"outputs":[],"stateMutability":"nonpayable"},{"type":"function","name":"fund","inputs":[],"outputs":[],"stateMutability":"payable"},{"type":"function","name":"getAddressToAmountFunded","inputs":[{"name":"fundingAddress","type":"address","internalType":"address"}],"outputs":[{"name":"","type":"uint256","internalType":"uint256"}],"stateMutability":"view"},{"type":"function","name":"getFunder","inputs":[{"name":"index","type":"uint256","internalType":"uint256"}],"outputs":[{"name":"","type":"address","internalType":"address"}],"stateMutability":"view"},{"type":"function","name":"getOwner","inputs":[],"outputs":[{"name":"","type":"address","internalType":"address"}],"stateMutability":"view"},{"type":"function","name":"getPriceFeed","inputs":[],"outputs":[{"name":"","type":"address","internalType":"contract AggregatorV3Interface"}],"stateMutability":"view"},{"type":"function","name":"getVersion","inputs":[],"outputs":[{"name":"","type":"uint256","internalType":"uint256"}],"stateMutability":"view"},{"type":"function","name":"withdraw","inputs":[],"outputs":[],"stateMutability":"nonpayable"},{"type":"error","name":"FundMe__NotOwner","inputs":[]}],"bytecode":{"object":"0x60a060405234801561001057600080fd5b506040516109cb3803806109cb83398101604081905261002f91610058565b600280546001600160a01b0319166001600160a01b039290921691909117905533608052610088565b60006020828403121561006a57600080fd5b81516001600160a01b038116811461008157600080fd5b9392505050565b60805161090c6100bf6000396000818161012b0152818161023c015281816102f3015281816104550152610567015261090c6000f3fe6080604052600436106100865760003560e01c8063893d20e811610059578063893d20e81461011c5780639e87a5cd14610163578063b60d428814610181578063be2693f014610189578063d7b4750c1461019e57600080fd5b80630343fb251461008b5780630d8e6e2c146100d45780633ccfd60b146100e95780636b69a59214610100575b600080fd5b34801561009757600080fd5b506100c16100a636600461074b565b6001600160a01b031660009081526001602052604090205490565b6040519081526020015b60405180910390f35b3480156100e057600080fd5b506100c16101be565b3480156100f557600080fd5b506100fe610231565b005b34801561010c57600080fd5b506100c1674563918244f4000081565b34801561012857600080fd5b507f00000000000000000000000000000000000000000000000000000000000000005b6040516001600160a01b0390911681526020016100cb565b34801561016f57600080fd5b506002546001600160a01b031661014b565b6100fe610372565b34801561019557600080fd5b506100fe61044a565b3480156101aa57600080fd5b5061014b6101b9366004610774565b6105e7565b6002546040805163054fd4d560e41b815290516000926001600160a01b0316916354fd4d509160048083019260209291908290030181865afa158015610208573d6000803e3d6000fd5b505050506040513d601f19601f8201168201806040525081019061022c919061078d565b905090565b336001600160a01b037f0000000000000000000000000000000000000000000000000000000000000000161461027a5760405163579610db60e01b815260040160405180910390fd5b60005b6000548110156102d057600080828154811061029b5761029b6107a6565b60009182526020808320909101546001600160a01b0316825260019052604081205550806102c8816107d2565b91505061027d565b50604080516000808252602082019283905290516102ee92906106d1565b5060007f00000000000000000000000000000000000000000000000000000000000000006001600160a01b03164760405160006040518083038185875af1925050503d806000811461035c576040519150601f19603f3d011682016040523d82523d6000602084013e610361565b606091505b505090508061036f57600080fd5b50565b600254674563918244f40000906103939034906001600160a01b0316610616565b10156103e55760405162461bcd60e51b815260206004820152601b60248201527f596f75206e65656420746f207370656e64206d6f726520455448210000000000604482015260640160405180910390fd5b33600090815260016020526040812080543492906104049084906107eb565b9091555050600080546001810182559080527f290decd9548b62a8d60345a988386fc84ba6bc95484008f6362f93160ef3e5630180546001600160a01b03191633179055565b336001600160a01b037f000000000000000000000000000000000000000000000000000000000000000016146104935760405163579610db60e01b815260040160405180910390fd5b60008054604080516020808402820181019092528281529183918301828280156104e657602002820191906000526020600020905b81546001600160a01b031681526001909101906020018083116104c8575b5050505050905060005b815181101561054457600082828151811061050d5761050d6107a6565b6020908102919091018101516001600160a01b0316600090815260019091526040812055508061053c816107d2565b9150506104f0565b506040805160008082526020820192839052905161056292906106d1565b5060007f00000000000000000000000000000000000000000000000000000000000000006001600160a01b03164760405160006040518083038185875af1925050503d80600081146105d0576040519150601f19603f3d011682016040523d82523d6000602084013e6105d5565b606091505b50509050806105e357600080fd5b5050565b60008082815481106105fb576105fb6107a6565b6000918252602090912001546001600160a01b031692915050565b6000806106228361064e565b90506000670de0b6b3a764000061063986846107fe565b6106439190610815565b925050505b92915050565b600080826001600160a01b031663feaf968c6040518163ffffffff1660e01b815260040160a060405180830381865afa15801561068f573d6000803e3d6000fd5b505050506040513d601f19601f820116820180604052508101906106b39190610856565b505050915050806402540be4006106ca91906108a6565b9392505050565b828054828255906000526020600020908101928215610726579160200282015b8281111561072657825182546001600160a01b0319166001600160a01b039091161782556020909201916001909101906106f1565b50610732929150610736565b5090565b5b808211156107325760008155600101610737565b60006020828403121561075d57600080fd5b81356001600160a01b03811681146106ca57600080fd5b60006020828403121561078657600080fd5b5035919050565b60006020828403121561079f57600080fd5b5051919050565b634e487b7160e01b600052603260045260246000fd5b634e487b7160e01b600052601160045260246000fd5b6000600182016107e4576107e46107bc565b5060010190565b80820180821115610648576106486107bc565b8082028115828204841417610648576106486107bc565b60008261083257634e487b7160e01b600052601260045260246000fd5b500490565b805169ffffffffffffffffffff8116811461085157600080fd5b919050565b600080600080600060a0868803121561086e57600080fd5b61087786610837565b945060208601519350604086015192506060860151915061089a60808701610837565b90509295509295909350565b80820260008212600160ff1b841416156108c2576108c26107bc565b8181058314821517610648576106486107bc56fea2646970667358221220a942ff453055fa1cfd0c623b70ea5d7cf11ee7a121021364bbb1106bda22d07f64736f6c63430008130033","linkReferences":{}},"methodIdentifiers":{"MINIMUM_USD()":"6b69a592","cheaperWithdraw()":"be2693f0","fund()":"b60d4288","getAddressToAmountFunded(address)":"0343fb25","getFunder(uint256)":"d7b4750c","getOwner()":"893d20e8","getPriceFeed()":"9e87a5cd","getVersion()":"0d8e6e2c","withdraw()":"3ccfd60b"},"id":30}